S01700004763634170706C69636174696F6E312E737265635B
S11300000C942A000C9447000C9447000C9447006D
S11300100C9447000C9447000C9447000C94470040
S11300200C9447000C9447000C9449000C9447002E
S11300300C9447000C9447000C9447000C94470020
S11300400C9447000C9447000C9447000C94470010
S11300500C94470011241FBECFE5D8E0DEBFCDBF0E
S113006010E0A0E6B0E0EEEAF5E202C005900D92E1
S1130070A63BB107D9F721E0A6EBB0E001C01D9281
S1130080A536B207E1F70E9498090C94D5120C9496
S113009000001F920F9200905F000F9211242F9383
S11300A03F934F935F936F937F938F939F93AF93FC
S11300B0BF93EF93FF93CF93DF93CDB7DEB78091D8
S11300C0BC009091BD00009719F40E94430202C045
S11300D00E9480000E949A0FDF91CF91FF91EF91CF
S11300E0BF91AF919F918F917F916F915F914F914C
S11300F03F912F910F9000925F000F901F901895E1
S1130100CF93DF93CDB7DEB78AE390E02FEFFC0106
S1130110208381E390E02FEFFC01208382E390E0D1
S11301202FEFFC0120838091BA009091BB000097CF
S113013091F48BE390E02091C5003091C6002659DC
S11301403F4FF9012081FC01208382E390E027EFF7
S1130150FC0120834AC08091BA009091BB00813099
S1130160910591F48BE390E02091C3003091C40099
S113017026593F4FF9012081FC01208382E390E05E
S11301802BEFFC01208331C08091BA009091BB0019
S11301908230910591F48BE390E0209162003091DC
S11301A0630026593F4FF9012081FC01208382E33B
S11301B090E02DEFFC01208318C08091BA0090914B
S11301C0BB008330910589F48BE390E020916000BB
S11301D03091610026593F4FF9012081FC012083B1
S11301E082E390E02EEFFC0120838091BA0090918D
S11301F0BB00019683709078992324F401978C6F47
S11302009F6F01969093BB008093BA00DF91CF91CA
S11302100895CF93DF93CDB7DEB78CE590E02AEF56
S1130220FC01208383E590E023E530E0F90120819F
S11302302860FC012083789489E590E029E530E08A
S1130240F90120812260FC01208383E590E023E50D
S113025030E0F90120812360FC012083DF91CF91FC
S11302600895CF93DF93CDB7DEB78AE390E02FEF05
S1130270FC01208381E390E02FEFFC01208382E3E3
S113028090E02FEFFC0120838091BA009091BB0095
S1130290009791F48BE390E02091CD003091CE0053
S11302A026593F4FF9012081FC01208382E390E02D
S11302B027EFFC0120834AC08091BA009091BB00D3
S11302C08130910591F48BE390E02091CF0030913F
S11302D0D00026593F4FF9012081FC01208382E39D
S11302E090E02BEFFC01208331C08091BA00909103
S11302F0BB008230910591F48BE390E02091D10012
S11303003091D20026593F4FF9012081FC0120830E
S113031082E390E02DEFFC01208318C08091BA00A5
S11303209091BB008330910589F48BE390E0209198
S1130330D3003091D40026593F4FF9012081FC01AC
S1130340208382E390E02EEFFC0120838091BA00A9
S11303509091BB00019683709078992324F40197BF
S11303608C6F9F6F01969093BB008093BA00DF91CE
S1130370CF910895CF93DF93CDB7DEB78AE390E0B2
S11303802FEFFC01208381E390E02FEFFC01208319
S113039082E390E02FEFFC0120838091BA009091DA
S11303A0BB00009791F48BE390E02091D100309151
S11303B0D20026593F4FF9012081FC01208382E3BA
S11303C090E027EFFC0120834AC08091BA0090910D
S11303D0BB008130910591F48BE390E02091D30030
S11303E03091D40026593F4FF9012081FC0120832C
S11303F082E390E02BEFFC01208331C08091BA00AE
S11304009091BB008230910591F48BE390E02091B0
S113041066003091670026593F4FF9012081FC01A5
S1130420208382E390E02DEFFC01208318C08091AB
S1130430BA009091BB008330910589F48BE390E07E
S1130440209168003091690026593F4FF9012081BD
S1130450FC01208382E390E02EEFFC012083809155
S1130460BA009091BB00019683709078992324F48C
S113047001978C6F9F6F01969093BB008093BA0095
S1130480DF91CF910895CF93DF9300D0CDB7DEB73E
S11304909A8389838091C7009091C8008130910527
S11304A011F40E9431018091C7009091C800009717
S11304B011F40E94BA010F900F90DF91CF9108952B
S11304C0CF93DF9300D0CDB7DEB79A838983809131
S11304D06400909165008130910509F0ECC0809131
S11304E0C200882311F00E94DF058091CD00909115
S11304F0CE008930910554F48091CD009091CE00C6
S113050001969093CE008093CD00D5C01092CE007A
S11305101092CD008091CF009091D000853091054C
S113052054F48091CF009091D00001969093D00024
S11305308093CF00C0C01092D0001092CF00809161
S1130540D1009091D2008930910554F48091D1006A
S11305509091D20001969093D2008093D100ABC0C9
S11305601092D2001092D1008091D3009091D400C7
S11305708530910554F48091D3009091D400019674
S11305809093D4008093D30096C01092D40010921C
S1130590D3008091680090916900880F991F9C0195
S11305A0220F331F220F331F280F391F809166003B
S11305B090916700820F931F833191054CF48091D1
S11305C0660090916700019690936700809366009F
S11305D08091680090916900880F991F9C01220FF7
S11305E0331F220F331F280F391F8091660090910B
S11305F06700820F931F8331910551F482E090E0EC
S113060090936900809368001092670010926600CE
S11306108091680090916900880F991F9C01220FB6
S1130620331F220F331F280F391F809166009091CA
S11306306700820F931F84319105FCF0809168005C
S113064090916900880F991F9C01220F331F220F7C
S1130650331F280F391F8091660090916700820F25
S1130660931F873191054CF4809166009091670047
S11306700196909367008093660080916800909142
S11306806900880F991F9C01220F331F220F331F0B
S1130690280F391F8091660090916700820F931F85
S11306A08731910541F4109269001092680010920C
S11306B06700109266000F900F90DF91CF9108951C
S11306C0CF93DF9300D0CDB7DEB78A8319820FC0F2
S11306D08A81882F90E081709927009711F0898191
S11306E00AC08A8186958A8389818F5F89838981FB
S11306F0883070F380E00F900F90DF91CF910895D0
S1130700CF93DF9300D0CDB7DEB78A83198210C0B0
S11307108A81882F90E081709927009719F0898148
S11307208F5F0AC08A8186958A8389818F5F8983D6
S11307308981883068F380E00F900F90DF91CF912A
S11307400895CF93DF93CDB7DEB728970FB6F8940B
S1130750DEBF0FBECDBF9A8389837C836B835E83A8
S11307604D8338872F838091C200882F90E0880FB3
S1130770991F880F991F880F991F8B5D9E4F2981A0
S11307803A81FC01318320838091C200882F90E05C
S1130790880F991F880F991F880F991F895D9E4F95
S11307A02B813C81FC01318320838091C200882FFE
S11307B090E0880F991F880F991F880F991F875DF4
S11307C09E4F2D813E81FC01318320838091C200A4
S11307D0882F90E0880F991F880F991F880F991F01
S11307E0855D9E4F2F813885FC01318320832896B7
S11307F00FB6F894DEBF0FBECDBFDF91CF91089541
S1130800CF93DF93CDB7DEB78091C7009091C80036
S11308108130910521F41092C8001092C700809194
S1130820B8009091B90081309105E1F082309105D2
S113083079F1009709F0BFC08091D1009091D20066
S11308408930910554F48091D1009091D2000196A1
S11308509093D2008093D100AEC01092D200109237
S1130860D100A9C08091D3009091D4008530910526
S113087054F48091D3009091D40001969093D400C5
S11308808093D30098C01092D4001092D30093C0E8
S11308908091680090916900880F991F9C01220F34
S11308A0331F220F331F280F391F80916600909148
S11308B06700820F931F833191054CF48091660089
S11308C090916700019690936700809366008091F1
S11308D0680090916900880F991F9C01220F331FB3
S11308E0220F331F280F391F8091660090916700F3
S11308F0820F931F8331910551F482E090E090932D
S113090069008093680010926700109266008091DD
S1130910680090916900880F991F9C01220F331F72
S1130920220F331F280F391F8091660090916700B2
S1130930820F931F84319105FCF08091680090919F
S11309406900880F991F9C01220F331F220F331F48
S1130950280F391F8091660090916700820F931FC2
S1130960883191054CF4809166009091670001965E
S1130970909367008093660080916800909169006D
S1130980880F991F9C01220F331F220F331F280F3A
S1130990391F8091660090916700820F931F883100
S11309A0910541F41092690010926800109267005A
S11309B0109266000000DF91CF910895CF93DF93EA
S11309C0CDB7DEB78091BE009091BF008130910514
S11309D0E1F08230910579F1009709F0BFC0809170
S11309E0C5009091C6008930910554F48091C500EA
S11309F09091C60001969093C6008093C500AEC046
S1130A001092C6001092C500A9C08091C3009091B5
S1130A10C4008530910554F48091C3009091C400C2
S1130A2001969093C4008093C30098C01092C400B0
S1130A301092C30093C08091600090916100880F70
S1130A40991F9C01220F331F220F331F280F391FB8
S1130A508091620090916300820F931F833191050E
S1130A604CF480916200909163000196909363002E
S1130A70809362008091600090916100880F991FBB
S1130A809C01220F331F220F331F280F391F80911F
S1130A90620090916300820F931F8331910551F49A
S1130AA082E090E090936100809360001092630074
S1130AB0109262008091600090916100880F991FEC
S1130AC09C01220F331F220F331F280F391F8091DF
S1130AD0620090916300820F931F84319105FCF0B2
S1130AE08091600090916100880F991F9C01220FF2
S1130AF0331F220F331F280F391F809162009091FA
S1130B006300820F931F883191054CF48091620039
S1130B1090916300019690936300809362008091AA
S1130B20600090916100880F991F9C01220F331F70
S1130B30220F331F280F391F8091620090916300A8
S1130B40820F931F8831910541F410926100109235
S1130B50600010926300109262000000DF91CF9158
S1130B600895CF93DF9300D000D0CDB7DEB71A82BB
S1130B7019821C821B8216C089819A8101969A83EC
S1130B80898386E790E00E948D0B05C08B819C8150
S1130B9001969C838B838B819C81883C9105B4F363
S1130BA00E94AB0B89819A81803223E0920721F75E
S1130BB00F900F900F900F90DF91CF910895CF93E6
S1130BC0DF93CDB7DEB72A970FB6F894DEBF0FBE1A
S1130BD0CDBF0E94AB0B8EE790E00E948D0B1A8272
S1130BE019821C821B821E821D8280916800909152
S1130BF06900880F991F9C01220F331F220F331F96
S1130C00280F391F8091660090916700820F931F0F
S1130C1098878F838091D3009091D400880F991F77
S1130C209C01220F331F220F331F280F391F80917D
S1130C30D1009091D200820F931F9A8789871A82DC
S1130C40198271C00E94AB0B86E890E00E948D0B64
S1130C508091C200882F90E0880F991F880F991FF8
S1130C60880F991F8B5D9E4FFC0180819181880FB5
S1130C70991F9C01220F331F220F331F280F391F86
S1130C808091C200882F90E0880F991F880F991FC8
S1130C90880F991F895D9E4FFC0180819181820F8D
S1130CA0931F9C838B838091C200882F90E0880FD0
S1130CB0991F880F991F880F991F875D9E4FFC010C
S1130CC080819181880F991F9C01220F331F220F6D
S1130CD0331F280F391F8091C200882F90E0880F9E
S1130CE0991F880F991F880F991F855D9E4FFC01DE
S1130CF080819181820F931F9E838D832F813885FC
S1130D008B819C812817390749F429853A858D817F
S1130D109E812817390711F40E94B10589819A81AF
S1130D2001969A8389838091C200282F30E08981BB
S1130D309A81821793070CF485CF2A960FB6F894FC
S1130D40DEBF0FBECDBFDF91CF9108950F931F93E8
S1130D50CF93DF93CDB7DEB72E970FB6F894DEBFEF
S1130D600FBECDBF98878F8385E390E0FC0110828E
S1130D7084E390E02FE0FC01208385E390E020EF02
S1130D80FC0120831A82198205C089819A81019607
S1130D909A83898389819A818A309105B4F383E3A4
S1130DA090E0FC018081882F90E09093CC008093A8
S1130DB0CB008091CB009091CC0080959095959537
S1130DC087959595879595958795959587958F7032
S1130DD099279093CC008093CB0085E390E0FC01AD
S1130DE0108284E390E020EFFC01208385E390E00F
S1130DF02FE0FC0120831C821B8205C08B819C8117
S1130E0001969C838B838B819C818A309105B4F3FA
S1130E1083E390E0FC018081882F90E09093CA00E6
S1130E208093C9008091C9009091CA0080959095E3
S1130E308F7099279093CA008093C9008091CB004A
S1130E409091CC000E946003882F90E08C01000FE9
S1130E50111F000F111F8091C9009091CA000E94B8
S1130E608003882F90E0800F911F9E838D838D8156
S1130E709E818330910509F489C0843091053CF446
S1130E808130910569F08230910551F130C184308F
S1130E90910509F495C08530910509F415C127C160
S1130EA08091B6009091B7008130910591F08091C6
S1130EB0C7009091C800019681709078992324F41A
S1130EC001978E6F9F6F01969093C8008093C7001F
S1130ED00EC181E090E09093C8008093C70007C1E1
S1130EE08091B6009091B7000097D1F181309105BF
S1130EF009F0FDC08091B8009091B900823091054D
S1130F0091F41092B7001092B6001092B9001092AA
S1130F10B8001092C1001092C0000E94AB0B89E887
S1130F2090E00E948D0B8091B8009091B9008230BE
S1130F30910574F48091B8009091B900019623E072
S1130F4030E0B9010E9487129093B9008093B800F1
S1130F508091C200882319F00E94DF0516C015C0D5
S1130F6081E090E09093B7008093B60081E090E038
S1130F709093C1008093C0001092B9001092B80001
S1130F8085E990E00E948D0B0000B1C08091C00003
S1130F909091C1008130910591F48091BC009091B1
S1130FA0BD008130910511F40E94DE048091BC00E3
S1130FB09091BD00009719F40E94000498C097C056
S1130FC08091BC009091BD00009709F467C0813006
S1130FD0910509F08CC08091BE009091BF008230D1
S1130FE0910509F044C01092BD001092BC0010920B
S1130FF0BF001092BE002091C5003091C600409100
S1131000C3005091C40060916200709163008091AC
S11310106000909161000E94A1038091C200882F1A
S113102090E0019629E030E0B9010E948712809394
S1131030C2000E94AB0B8EE990E00E948D0B1092CF
S1131040C1001092C00081E090E090936100809311
S1131050600082E090E090936300809362001092BD
S1131060C4001092C3001092C6001092C500809173
S1131070BE009091BF00823091057CF48091BE0047
S11310809091BF00019623E030E0B9010E948712DD
S11310909093BF008093BE0016C015C081E090E01D
S11310A09093BD008093BC001092BF001092BE00CC
S11310B081E090E09093C1008093C0008CEA90E0BE
S11310C00E948D0B000013C0F894109265001092DA
S11310D064000E9482089093D0008093CF0078949B
S11310E081E090E0909365008093640000002E9668
S11310F00FB6F894DEBF0FBECDBFDF91CF911F9125
S11311000F910895CF93DF93CDB7DEB765970FB6F0
S1131110F894DEBF0FBECDBF8BE390E0FC011082DC
S11311200E94E7108F838BE390E02FEFFC01208374
S11311308F810E94F9108BE390E0FC0110820E94E1
S1131140E71088878BE390E02FEFFC0120838885EC
S11311500E94F910CE0107960E94AF129A838983E8
S113116089819A8199232CF089819A81883191050A
S11311701CF01A82198217C089819A812AE030E012
S1131180B9010E948712CB01909369008093680093
S113119089819A812AE030E0B9010E9487129093F4
S11311A06700809366008BE390E02FEFFC012083BF
S11311B08BE30E94F9108BE390E0FC0110820E9403
S11311C0E7108F838BE390E02FEFFC0120838BE308
S11311D00E94F9108BE390E0FC0110820E94E7105A
S11311E08F838BE390E02FEFFC0120838F810E949B
S11311F0F9108BE390E0FC0110820E94E7108887CD
S11312008BE390E02FEFFC01208388850E94F91086
S1131210CE0107960E94AF129C838B838B819C81A5
S113122099232CF08B819C818C3391051CF01C82BA
S11312301B8217C08B819C812AE030E0B9010E9497
S11312408712CB019093D4008093D3008B819C812F
S11312502AE030E0B9010E9487129093D200809373
S1131260D1008BE390E02FEFFC0120838BE30E94FD
S1131270F9108BE390E0FC0110820E94E7108F8349
S11312808BE390E02FEFFC0120838BE30E94F910A5
S11312908BE390E0FC0110820E94E7108F838BE3C4
S11312A090E02FEFFC0120838F810E94F9108BE3E3
S11312B090E0FC0110820E94E71088878BE390E0A5
S11312C02FEFFC01208388850E94F910CE01079638
S11312D00E94AF129E838D838D819E8199232CF071
S11312E08D819E818C3391051CF01E821D8217C056
S11312F08D819E812AE030E0B9010E948712CB01E2
S11313009093D0008093CF008D819E812AE030E0BD
S1131310B9010E9487129093CE008093CD00659608
S11313200FB6F894DEBF0FBECDBFDF91CF91089505
S1131330CF93DF93CDB7DEB70E94330C0E94AB0B83
S11313400E94CD1020E030E040E652E068EE73E009
S113135081E090E00E94551020E030E046EA56E03B
S113136064E670E082E090E00E9455100E9409015A
S113137078940E94980E80E090E0DF91CF910895D8
S1131380CF93DF931F92CDB7DEB789838981882FEE
S113139090E081709927009751F088E390E028E36A
S11313A030E0F90120812061FC01208309C088E339
S11313B090E028E330E0F90120812F7EFC012083B6
S11313C08981882F90E082709927009751F088E3F3
S11313D090E028E330E0F90120812062FC012083C1
S11313E009C088E390E028E330E0F90120812F7DF3
S11313F0FC0120838981882F90E0847099270097CD
S113140051F088E390E028E330E0F9012081206482
S1131410FC01208309C088E390E028E330E0F9016F
S113142020812F7BFC0120838981882F90E08870A4
S11314309927009751F088E390E028E330E0F90120
S113144020812068FC01208309C088E390E028E320
S113145030E0F90120812F77FC0120830F90DF9188
S1131460CF910895CF93DF93CDB7DEB7A1970FB691
S1131470F894DEBF0FBECDBF89A388E390E028E3D4
S113148030E0F90120812860FC01208389A1829544
S11314908F700E94C00988E390E028E330E0F901EE
S11314A02081277FFC01208388E390E028E330E05B
S11314B0F90120812860FC01208389A10E94C009D0
S11314C088E390E028E330E0F9012081277FFC01E4
S11314D0208380E090E0A8E4B2E489839A83AB831C
S11314E0BC832BEA3AEA4AEA50E469817A818B8127
S11314F09C810E942412DC01CB018D839E83AF83E7
S1131500B88720E030E040E850E469817A818B813B
S11315109C810E942412DC01CB0189879A87AB87C6
S1131520BC8720E030E040E85FE36D817E818F81FD
S113153098850E94131188231CF481E08D87B2C022
S113154020E03FEF4FE757E469857A858B859C85DA
S11315500E94201218160CF07BC020E030E04AE70D
S113156054E469817A818B819C810E941711DC018A
S1131570CB018E879F87A88BB98B20E030E04AE7A8
S113158055E46E857F85888999890E942412DC013F
S1131590CB018A8B9B8BAC8BBD8B20E030E040E889
S11315A05FE36A897B898C899D890E941311882352
S11315B02CF481E090E09F8B8E8B3FC020E03FEFC6
S11315C04FE757E46A897B898C899D890E942012A0
S11315D018164CF520E030E040E251E46E857F853A
S11315E0888999890E942412DC01CB01BC01CD01B8
S11315F00E947F11DC01CB019F8B8E8B0FC080E991
S113160091E0998F888F888D998D0197F1F7998F43
S1131610888F8E899F8901979F8B8E8B8E899F8956
S1131620009769F73FC06A897B898C899D890E94EC
S11316307F11DC01CB019F8B8E8B8E899F899B8FC1
S11316408A8F8A8D9B8D0197F1F79B8F8A8F2AC091
S113165020E030E04FE753E46D817E818F819885EF
S11316600E9420121816ACF469857A858B859C85B6
S11316700E947F11DC01CB019D8F8C8F8C8D9D8D01
S11316809F8F8E8F8E8D9F8D0197F1F79F8F8E8FF9
S11316900FC06D817E818F8198850E947F11DC014E
S11316A0CB018D878D8588A388A18A95F1F788A3BE
S11316B0A1960FB6F894DEBF0FBECDBFDF91CF91D8
S11316C00895CF93DF931F92CDB7DEB7898388E364
S11316D090E028E330E0F90120812B7FFC01208396
S11316E089810E94320A0F90DF91CF910895CF93A0
S11316F0DF931F92CDB7DEB7898388E390E028E3B8
S113170030E0F90120812460FC01208389810E945A
S1131710320A0F90DF91CF910895CF93DF9300D0D9
S1131720CDB7DEB79A8389830BC089819A819C01E6
S11317302F5F3F4F3A832983FC0180810E94770BFE
S113174089819A81FC018081882379F70F900F9019
S1131750DF91CF910895CF93DF93CDB7DEB72E9766
S11317600FB6F894DEBF0FBECDBF81E00E94610BBF
S113177080E090E0A0E2B1E489839A83AB83BC83E8
S113178020E030E04AE755E469817A818B819C81CD
S11317900E942412DC01CB018D839E83AF83B88722
S11317A020E030E040E85FE36D817E818F819885A1
S11317B00E94131188232CF481E090E09A87898792
S11317C03FC020E03FEF4FE757E46D817E818F817A
S11317D098850E94201218164CF520E030E040E273
S11317E051E469817A818B819C810E942412DC01FD
S11317F0CB01BC01CD010E947F11DC01CB019A8792
S113180089870FC080E991E09C878B878B859C85B5
S11318100197F1F79C878B8789859A8501979A8729
S1131820898789859A85009769F714C06D817E81BF
S11318308F8198850E947F11DC01CB019A8789876B
S113184089859A859E878D878D859E850197F1F779
S11318509E878D872E960FB6F894DEBF0FBECDBF40
S1131860DF91CF910895CF93DF93CDB7DEB7E9979A
S11318700FB6F894DEBF0FBECDBF87E390E027E339
S113188030E0F90120812061FC01208387E390E0AE
S113189027E330E0F90120812062FC01208387E303
S11318A090E027E330E0F90120812064FC012083EB
S11318B087E390E027E330E0F90120812068FC0110
S11318C0208387E390E027E330E0F901208128605A
S11318D0FC01208387E390E027E330E0F9012081D5
S11318E02460FC01208380E090E0A0E7B1E48A83D7
S11318F09B83AC83BD8320E030E04AE755E46A81F2
S11319007B818C819D810E942412DC01CB018E831A
S11319109F83A887B98720E030E040E85FE36E81C9
S11319207F81888599850E94131188232CF481E096
S113193090E09B878A873FC020E03FEF4FE757E462
S11319406E817F81888599850E94201218164CF536
S113195020E030E040E251E46A817B818C819D810A
S11319600E942412DC01CB01BC01CD010E947F1135
S1131970DC01CB019B878A870FC080E991E09D87BA
S11319808C878C859D850197F1F79D878C878A8547
S11319909B8501979B878A878A859B85009769F732
S11319A014C06E817F81888599850E947F11DC0136
S11319B0CB019B878A878A859B859F878E878E85A7
S11319C09F850197F1F79F878E8788E390E028E34E
S11319D030E0F90120812B7FFC01208388E390E033
S11319E028E330E0F9012081277FFC01208319825C
S11319F08AC088E390E028E330E0F9012081286080
S1131A00FC01208383E00E94C00988E390E028E37E
S1131A1030E0F9012081277FFC01208380E090E001
S1131A20A0EAB0E4888B998BAA8BBB8B20E030E0D2
S1131A304AE755E4688979898A899B890E94241236
S1131A40DC01CB018C8B9D8BAE8BBF8B20E030E017
S1131A5040E85FE36C897D898E899F890E94131118
S1131A6088232CF481E090E0998F888F3FC020E098
S1131A703FEF4FE757E46C897D898E899F890E94E7
S1131A80201218164CF520E030E040E251E4688959
S1131A9079898A899B890E942412DC01CB01BC01CB
S1131AA0CD010E947F11DC01CB01998F888F0FC07B
S1131AB080E991E09B8F8A8F8A8D9B8D0197F1F746
S1131AC09B8F8A8F888D998D0197998F888F888DA8
S1131AD0998D009769F714C06C897D898E899F89D7
S1131AE00E947F11DC01CB01998F888F888D998D9D
S1131AF09D8F8C8F8C8D9D8D0197F1F79D8F8C8F91
S1131B0089818F5F89838981833008F472CF88E368
S1131B1090E028E330E0F90120812860FC01208373
S1131B2082E00E94C00988E390E028E330E0F901F4
S1131B302081277FFC01208380E090E0A0E8BFE3C0
S1131B408E8F9F8FA8A3B9A320E030E04AE755E425
S1131B506E8D7F8D88A199A10E942412DC01CB0196
S1131B608AA39BA3ACA3BDA320E030E040E85FE3DD
S1131B706AA17BA18CA19DA10E94131188232CF43E
S1131B8081E090E09FA38EA33FC020E03FEF4FE7AA
S1131B9057E46AA17BA18CA19DA10E942012181672
S1131BA04CF520E030E040E251E46E8D7F8D88A159
S1131BB099A10E942412DC01CB01BC01CD010E9439
S1131BC07F11DC01CB019FA38EA30FC080E991E0BC
S1131BD099A788A788A599A50197F1F799A788A738
S1131BE08EA19FA101979FA38EA38EA19FA1009771
S1131BF069F714C06AA17BA18CA19DA10E947F11E9
S1131C00DC01CB019FA38EA38EA19FA19BA78AA7D2
S1131C108AA59BA50197F1F79BA78AA788E20E9452
S1131C20610B88E00E94610B81E00E94610B80E0FF
S1131C3090E0A0E0B0E48CA79DA7AEA7BFA720E0EA
S1131C4030E04AE755E46CA57DA58EA59FA50E94CA
S1131C502412DC01CB0188AB99ABAAABBBAB20E06F
S1131C6030E040E85FE368A979A98AA99BA90E94AA
S1131C70131188232CF481E090E09DAB8CAB3FC022
S1131C8020E03FEF4FE757E468A979A98AA99BA907
S1131C900E94201218164CF520E030E040E251E496
S1131CA06CA57DA58EA59FA50E942412DC01CB0105
S1131CB0BC01CD010E947F11DC01CB019DAB8CAB3B
S1131CC00FC080E991E09FAB8EAB8EA99FA90197CD
S1131CD0F1F79FAB8EAB8CA99DA901979DAB8CAB03
S1131CE08CA99DA9009769F714C068A979A98AA944
S1131CF09BA90E947F11DC01CB019DAB8CAB8CA90D
S1131D009DA999AF88AF88AD99AD0197F1F799AFC7
S1131D1088AF86E00E94610B8CE00E94610BE9961B
S1131D200FB6F894DEBF0FBECDBFDF91CF910895FB
S1131D30CF93DF9300D000D0CDB7DEB71A821982DB
S1131D406CC089819A81880F991F9C01220F331FCF
S1131D50220F331F820F931F8B529F4FFC018081F0
S1131D609181009709F054C089819A81880F991F45
S1131D709C01220F331F220F331F820F931F8552A2
S1131D809F4FFC011182108289819A81880F991FCB
S1131D909C01220F331F220F331F820F931F89527E
S1131DA09F4F2FEF3FEFFC013183208389819A817C
S1131DB0880F991F9C01220F331F220F331F820F9C
S1131DC0931F87529F4FFC011182108289819A814F
S1131DD0880F991F9C01220F331F220F331F820F7C
S1131DE0931F8B529F4FFC011182108289819A812B
S1131DF0880F991F9C01220F331F220F331F820F5C
S1131E00931F83529F4F2FEF3FEFFC0131832083B9
S1131E1089819A8101969A83898389819A818830FC
S1131E2091050CF48ECF1C821B828B819C81880FC0
S1131E30991F9C01220F331F220F331F820F931F00
S1131E4087529F4FFC0180819181181619060CF06E
S1131E5055C08091740090917500009721F0109204
S1131E607500109274008B819C81880F991F9C01CE
S1131E70220F331F220F331F820F931F87529F4F4E
S1131E80FC01808191819C01215031098B819C81CD
S1131E90880F991FAC01440F551F440F551F840F21
S1131EA0951F87529F4FFC01318320838B819C8136
S1131EB0880F991F9C01220F331F220F331F820F9B
S1131EC0931F8B529F4FFC01208131818B819C8118
S1131ED0880F991FAC01440F551F440F551F840FE1
S1131EE0951F85529F4FFC0180819181F9010995CD
S1131EF08B819C8101969C838B831BC08B819C81ED
S1131F0001968830910534F48B819C8101969C83E1
S1131F108B830FC08091740090917500009731F409
S1131F2081E090E090937500809374001C821B8282
S1131F307CCF7BCFCF93DF9300D0CDB7DEB71A82AF
S1131F401982A8C089819A81880F991F9C01220F48
S1131F50331F220F331F820F931F83529F4FFC01A5
S1131F6080819181009709F06DC089819A81880FE1
S1131F70991F9C01220F331F220F331F820F931FBF
S1131F8087529F4FFC01808191819C012F5F3F4FBD
S1131F9089819A81880F991FAC01440F551F440F02
S1131FA0551F840F951F87529F4FFC013183208357
S1131FB089819A81880F991F9C01220F331F220F58
S1131FC0331F820F931F87529F4FFC0180819181A1
S1131FD0883EF3E09F0794F089819A81880F991FC6
S1131FE09C01220F331F220F331F820F931F87522E
S1131FF09F4F22E030E0FC013183208389819A8164
S1132000880F991F9C01220F331F220F331F820F49
S1132010931F89529F4FFC01808191819C01215023
S1132020310989819A81880F991FAC01440F551F8A
S1132030440F551F840F951F83529F4FFC0131831A
S1132040208323C089819A81880F991F9C01220FC4
S1132050331F220F331F820F931F83529F4FFC01A4
S1132060808191819C012150310989819A81880F55
S1132070991FAC01440F551F440F551F840F951F22
S113208083529F4FFC013183208389819A81019679
S11320909A83898389819A81883091050CF452CF7F
S11320A00F900F90DF91CF910895CF93DF93CDB729
S11320B0DEB728970FB6F894DEBF0FBECDBF9A8364
S11320C089837C836B835E834D8338872F838981E7
S11320D09A810197880F991F9C01220F331F220FA9
S11320E0331F820F931F89529F4F2B813C81FC0128
S11320F03183208389819A810197880F991F9C01DC
S1132100220F331F220F331F820F931F8B529F4FB7
S11321102D813E81FC013183208389819A8101973D
S1132120880F991F9C01220F331F220F331F820F28
S1132130931F85529F4F2F813885FC013183208363
S113214089819A810197880F991F9C01220F331F5F
S1132150220F331F820F931F83529F4F2B813C8189
S1132160FC013183208389819A810197880F991F0B
S11321709C01220F331F220F331F820F931F87529C
S11321809F4FFC011182108228960FB6F894DEBF8F
S11321900FBECDBFDF91CF910895CF93DF93CDB71D
S11321A0DEB780E490E0FC01108289E290E029E14E
S11321B0FC0120838AE290E028E1FC01208380E492
S11321C090E026E8FC012083DF91CF910895CF931E
S11321D0DF93CDB7DEB700008BE290E0FC01808195
S11321E08823D4F78CE290E0FC018081DF91CF91C9
S11321F00895CF93DF931F92CDB7DEB78983000094
S11322008BE290E0FC018081882F90E08072992716
S11322100097B1F38CE290E02981FC0120830F90B8
S1132220DF91CF91089597D008F481E008950CD000
S1132230CDC0C5D040F0BCD030F021F45F3F19F0E0
S1132240AEC05111F7C0B1C0D2D098F39923C9F3ED
S11322505523B1F3951B550BBB27AA2762177307A8
S1132260840738F09F5F5F4F220F331F441FAA1F5C
S1132270A9F333D00E2E3AF0E0E830D0915050401C
S1132280E695001CCAF729D0FE2F27D0660F771FCA
S1132290881FBB1F261737074807AB07B0E809F0AC
S11322A0BB0B802DBF01FF2793585F4F2AF09E3F41
S11322B0510568F074C0BEC05F3FECF3983EDCF398
S11322C0869577956795B795F7959F5FC9F7880FBA
S11322D0911D9695879597F90895E1E0660F771F0C
S11322E0881FBB1F621773078407BA0720F0621B9D
S11322F0730B840BBA0BEE1F88F7E09508957FD01B
S113230088F09F5790F0B92F9927B751A0F0D1F0DA
S1132310660F771F881F991F1AF0BA95C9F712C064
S1132320B13081F086D0B1E0089583C0672F782F53
S11323308827B85F39F0B93FCCF3869577956795D0
S1132340B395D9F73EF490958095709561957F4F3C
S11323508F4F9F4F0895990F0008550FAA0BE0E87F
S1132360FEEF16161706E807F907C0F01216130653
S1132370E407F50798F0621B730B840B950B39F493
S11323800A2661F0232B242B252B21F408950A26F9
S113239009F4A140A6958FEF811D811D089597F939
S11323A09F6780E870E060E008959FEF80EC0895F7
S11323B000240A9416161706180609060895002420
S11323C00A9412161306140605060895092E03949A
S11323D0000C11F4882352F0BB0F40F4BF2B11F40E
S11323E060FF04C06F5F7F4F8F4F9F4F089557FD6D
S11323F09058440F551F59F05F3F71F04795880F6F
S113240097FB991F61F09F3F79F087950895121605
S113241013061406551FF2CF4695F1DF08C01616B1
S113242017061806991FF1CF869571056105089462
S11324300895E894BB2766277727CB0197F9089579
S11324408ADF08F48FEF08950BD0C0CFB1DF28F0F6
S1132450B6DF18F0952309F0A2CFA7CF1124EACF55
S1132460C6DFA0F3959FD1F3950F50E0551F629FEF
S1132470F001729FBB27F00DB11D639FAA27F00DD9
S1132480B11DAA1F649F6627B00DA11D661F829F00
S11324902227B00DA11D621F739FB00DA11D621FE5
S11324A0839FA00D611D221F749F3327A00D611D02
S11324B0231F849F600D211D822F762F6A2F1124E4
S11324C09F5750408AF0E1F088234AF0EE0FFF1F37
S11324D0BB1F661F771F881F91505040A9F79E3F6E
S11324E0510570F05CCFA6CF5F3FECF3983EDCF370
S11324F0869577956795B795F795E7959F5FC1F7AB
S1132500FE2B880F911D9695879597F9089597FB53
S1132510072E16F4009407D077FD09D00E949B1271
S113252007FC05D03EF4909581959F4F08957095D2
S113253061957F4F0895AA1BBB1B51E107C0AA1FD9
S1132540BB1FA617B70710F0A61BB70B881F991F50
S11325505A95A9F780959095BC01CD010895FC0189
S113256088279927E89421912032E9F3293010F043
S11325702E30C8F32B3241F02D3239F4689404C064
S11325800E94CD12820F911D219120532A30C0F355
S11325901EF4909581959F4F08957AE0979F902D12
S11125A0879F802D910D11240895F894FFCF8C
S11325AE01000200010002000100C0F9A4B09992DA
S11325BE82F8809001004249502042495000414C1B
S11325CE4C41524D530041410054696D6520536591
S11325DE74746564005365742054494D450020415C
S11325EE6C61726D2041444445442000536574204F
S10925FE416C61726D00E6
S9030000FC
