:100000000C942A000C9447000C9447000C94470071
:100010000C9447000C9447000C9447000C94470044
:100020000C9447000C9447000C9449000C94470032
:100030000C9447000C9447000C9447000C94470024
:100040000C9447000C9447000C9447000C94470014
:100050000C94470011241FBECFE5D8E0DEBFCDBF12
:1000600010E0A0E6B0E0E8E8F1E202C005900D92F1
:10007000A238B107D9F721E0A2E8B0E001C01D9293
:10008000A932B207E1F70E943F080C94C2100C9409
:1000900000001F920F9200905F000F9211242F9387
:1000A0003F934F935F936F937F938F939F93AF9300
:1000B000BF93EF93FF93CF93DF93CDB7DEB70E944B
:1000C000530EDF91CF91FF91EF91BF91AF919F912F
:1000D0008F917F916F915F914F913F912F910F90F1
:1000E00000925F000F901F901895CF93DF93CDB7CC
:1000F000DEB78CE590E02AEFFC01208383E590E0F9
:1001000023E530E0F90120812860FC012083789408
:1001100089E590E029E530E0F90120812260FC01C9
:10012000208383E590E023E530E0F901208123601E
:10013000FC012083DF91CF910895CF93DF93CDB75A
:10014000DEB781E390E02FEFFC01208382E390E0B3
:100150002FEFFC0120838091820090918300009713
:1001600091F48BE390E020918B0030918C002E591C
:100170003F4FF9012081FC01208382E390E027EFCB
:10018000FC01208351C080918200909183008130D6
:10019000910591F48BE390E020918D0030918E00D9
:1001A0002E593F4FF9012081FC01208382E390E02A
:1001B0002BEFFC01208338C0809182009091830056
:1001C00082309105C9F48BE390E020918F0030914B
:1001D00090002E593F4FF9014081209160003091ED
:1001E0006100F42FF21B2F2FFC01208382E390E0AB
:1001F0002DEFFC01208318C0809182009091830034
:100200008330910589F48BE390E020919100309147
:1002100092002E593F4FF9012081FC01208382E397
:1002200090E02EEFFC01208380918200909183006A
:10023000019683709078992324F401978C6F9F6FB7
:1002400001969093830080938200DF91CF9108956F
:10025000CF93DF93CDB7DEB781E390E02FEFFC01C2
:10026000208382E390E02FEFFC01208380918200C5
:1002700090918300009791F48BE390E020918F00A0
:10028000309190002E593F4FF9012081FC012083CD
:1002900082E390E027EFFC01208351C0809182002F
:1002A000909183008130910591F48BE390E020914F
:1002B0009100309192002E593F4FF9012081FC01AD
:1002C000208382E390E02BEFFC01208338C08091F3
:1002D00082009091830082309105C9F48BE390E015
:1002E00020919300309194002E593F4FF9014081A5
:1002F0002091600030916100F42FF21B2F2FFC0140
:10030000208382E390E02DEFFC01208318C08091D0
:100310008200909183008330910589F48BE390E013
:1003200020919500309196002E593F4FF901208180
:10033000FC01208382E390E02EEFFC01208380917A
:10034000820090918300019683709078992324F421
:1003500001978C6F9F6F019690938300809382002A
:10036000DF91CF910895CF93DF9300D0CDB7DEB763
:100370009A838983809185009091860081309105D0
:1003800011F40E949D008091850090918600009755
:1003900011F40E9428010F900F90DF91CF910895E2
:1003A000CF93DF9300D0CDB7DEB79A838983809156
:1003B0008B0090918C0001968A30910554F48091C5
:1003C0008B0090918C00019690938C0080938B0011
:1003D0008EC010928C0010928B0080918D009091B5
:1003E0008E0001968730910554F480918D00909194
:1003F0008E00019690938E0080938D0078C01092AD
:100400008E0010928D0080918F0090919000019647
:100410008A30910554F480918F009091900001965C
:100420009093900080938F0062C010929000109281
:100430008F008091910090919200019687309105F4
:1004400054F48091910090919200019690939200C3
:10045000809391004CC01092920010929100809174
:10046000950090919600019683309105FCF480915F
:1004700093009091940001968A30910554F48091F4
:100480009300909194000196909394008093930030
:100490000DC010929400109293008091950090915D
:1004A0009600019690939600809395008091950018
:1004B0009091960082309105D1F4809193009091B3
:1004C000940001968530910554F4809193009091A9
:1004D00094000196909394008093930008C010922A
:1004E00096001092950010929400109293000F9035
:1004F0000F90DF91CF910895CF93DF9300D000D07C
:10050000CDB7DEB785E390E0FC01108284E390E094
:100510002FE0FC01208385E390E020EFFC012083A5
:100520001A82198205C089819A8101969A838983EA
:1005300089819A818A309105B4F383E390E0FC01CC
:100540008081882F90E090938A0080938900809129
:10055000890090918A0080959095959587959595BD
:10056000879595958795959587958F709927909301
:100570008A008093890085E390E0FC01108284E387
:1005800090E020EFFC01208385E390E02FE0FC0168
:1005900020831C821B8205C08B819C8101969C83D9
:1005A0008B838B819C818A309105B4F383E390E047
:1005B000FC018081882F90E09093880080938700D1
:1005C0008091870090918800809590958F709927F1
:1005D00090938800809387000F900F900F900F905A
:1005E000DF91CF910895CF93DF9300D0CDB7DEB7E1
:1005F0008A8319820FC08A81882F90E081709927A1
:10060000009711F089810AC08A8186958A83898141
:100610008F5F89838981883070F380E00F900F901D
:10062000DF91CF910895CF93DF9300D0CDB7DEB7A0
:100630008A83198210C08A81882F90E0817099275F
:10064000009719F089818F5F0AC08A8186958A8315
:1006500089818F5F89838981883068F380E00F907A
:100660000F90DF91CF910895CF93DF93CDB7DEB791
:1006700028970FB6F894DEBF0FBECDBF9A8389834B
:100680007C836B835E834D8338872F8380918400C6
:10069000882F90E0880F991F880F991F880F991F46
:1006A00087519F4F29813A81FC01318320838091BA
:1006B0008400882F90E0880F991F880F991F880F5A
:1006C000991F85519F4F2B813C81FC0131832083F1
:1006D00080918400882F90E0880F991F880F991FC0
:1006E000880F991F83519F4F2D813E81FC013183DB
:1006F000208380918400882F90E0880F991F880FB5
:10070000991F880F991F81519F4F2F813885FC01B8
:1007100031832083809184008F5F809384002896AA
:100720000FB6F894DEBF0FBECDBFDF91CF91089515
:100730000F931F93CF93DF93CDB7DEB7A6970FB676
:10074000F894DEBF0FBECDBF8EE690E00E94440A53
:1007500080E090E0A8ECB3E48B879C87AD87BE87F0
:1007600020E030E04AE755E46B857C858D859E85E9
:100770000E945F10DC01CB018F87988BA98BBA8B0D
:1007800020E030E040E85FE36F85788989899A89C5
:100790000E944E0F88232CF481E090E09C8B8B8B81
:1007A0003FC020E03FEF4FE757E46F8578898989A4
:1007B0009A890E945B1018164CF520E030E040E268
:1007C00051E46B857C858D859E850E945F10DC01E0
:1007D000CB01BC01CD010E94BA0FDC01CB019C8B87
:1007E0008B8B0FC080E991E09E8B8D8B8D899E89CC
:1007F0000197F1F79E8B8D8B8B899C8901979C8B40
:100800008B8B8B899C89009769F714C06F857889D9
:1008100089899A890E94BA0FDC01CB019C8B8B8B52
:100820008B899C89988F8F8B8F89988D0197F1F791
:10083000988F8F8B0E94620A0CC11A8219821E82C5
:100840001D821C821B8218861F8229813A818D811C
:100850009E81820F931F9C018B819C81280F391FE1
:100860008F819885820F931F88589F4F0E94440A5A
:1008700080E090E0A8E4B3E4898F9A8FAB8FBC8FBF
:1008800020E030E04AE755E4698D7A8D8B8D9C8DB0
:100890000E945F10DC01CB018D8F9E8FAF8FB8A3BC
:1008A00020E030E040E85FE36D8D7E8D8F8D98A174
:1008B0000E944E0F88232CF481E090E09AA389A334
:1008C0003FC020E03FEF4FE757E46D8D7E8D8F8D69
:1008D00098A10E945B1018164CF520E030E040E231
:1008E00051E4698D7A8D8B8D9C8D0E945F10DC01A7
:1008F000CB01BC01CD010E94BA0FDC01CB019AA350
:1009000089A30FC080E991E09CA38BA38BA19CA13C
:100910000197F1F79CA38BA389A19AA101979AA3B0
:1009200089A389A19AA1009769F714C06D8D7E8D66
:100930008F8D98A10E94BA0FDC01CB019AA389A3E5
:1009400089A19AA19EA38DA38DA19EA10197F1F7E4
:100950009EA38DA30E94620A0E947C02809189005E
:1009600090918A000E94F302882F90E08C01000F82
:10097000111F000F111F80918700909188000E9425
:100980001303882F90E0800F911F9A8789878985AC
:100990009A8501978A3091050CF05BC08091970091
:1009A000909198008130910549F480919700909141
:1009B00098000196909398008093970080919700FB
:1009C0009091980082309105A1F489859A850197CC
:1009D0008630910574F489859A8501979C838B8371
:1009E0008091970090919800019690939800809341
:1009F000970080919700909198008330910549F479
:100A00008091970090919800019690939800809320
:100A1000970080919700909198008430910579F427
:100A200089859A850197833091054CF489859A854B
:100A300001979A83898310929800109297002F81D2
:100A400038854B815C816D817E8189819A810E948C
:100A500034038091970090919800009709F0EDCEB3
:100A6000A6960FB6F894DEBF0FBECDBFDF91CF9133
:100A70001F910F910895CF93DF93CDB7DEB76E9797
:100A80000FB6F894DEBF0FBECDBF1A821982EFC039
:100A900089819A8101969A8389838AE790E00E94EE
:100AA000440A80E090E0A6E1B3E48B839C83AD83AD
:100AB000BE8320E030E04AE755E46B817C818D8184
:100AC0009E810E945F10DC01CB018F839887A987EC
:100AD000BA8720E030E040E85FE36F817885898560
:100AE0009A850E944E0F88232CF481E090E09C8729
:100AF0008B873FC020E03FEF4FE757E46F81788559
:100B000089859A850E945B1018164CF520E030E02C
:100B100040E251E46B817C818D819E810E945F1057
:100B2000DC01CB01BC01CD010E94BA0FDC01CB017D
:100B30009C878B870FC080E991E09E878D878D858C
:100B40009E850197F1F79E878D878B859C85019700
:100B50009C878B878B859C85009769F714C06F8174
:100B6000788589859A850E94BA0FDC01CB019C8724
:100B70008B878B859C85988B8F878F85988901972C
:100B8000F1F7988B8F870E94620A80E090E0A8ECD2
:100B9000B2E4898B9A8BAB8BBC8B20E030E04AE7C8
:100BA00055E469897A898B899C890E945F10DC01F0
:100BB000CB018D8B9E8BAF8BB88F20E030E040E86F
:100BC0005FE36D897E898F89988D0E944E0F8823FF
:100BD0002CF481E090E09A8F898F3FC020E03FEFB6
:100BE0004FE757E46D897E898F89988D0E945B104D
:100BF00018164CF520E030E040E251E469897A892A
:100C00008B899C890E945F10DC01CB01BC01CD0166
:100C10000E94BA0FDC01CB019A8F898F0FC080E947
:100C200091E09C8F8B8F8B8D9C8D0197F1F79C8F22
:100C30008B8F898D9A8D01979A8F898F898D9A8D47
:100C4000009769F714C06D897E898F89988D0E94FD
:100C5000BA0FDC01CB019A8F898F898D9A8D9E8F77
:100C60008D8F8D8D9E8D0197F1F79E8F8D8F898150
:100C70009A81803223E0920709F00ACF6E960FB670
:100C8000F894DEBF0FBECDBFDF91CF910895CF9313
:100C9000DF9300D0CDB7DEB71A8219821A8219828B
:100CA00060C080918400882F90E0880F991F880F82
:100CB000991F880F991F81519F4FFC01208131811D
:100CC00080918F00909190002817390709F044C057
:100CD00080918400882F90E0880F991F880F991FBA
:100CE000880F991F83519F4FFC0120813181809192
:100CF0009100909192002817390771F58091840036
:100D0000882F90E0880F991F880F991F880F991FCF
:100D100085519F4FFC0120813181809193009091FA
:100D2000940028173907C1F480918400882F90E03F
:100D3000880F991F880F991F880F991F87519F4F00
:100D4000FC012081318180919500909196002817B7
:100D5000390711F40E943B0589819A8101969A8393
:100D6000898380918400282F30E089819A818217BD
:100D700093070CF496CF0F900F90DF91CF910895C9
:100D80000F931F93CF93DF9300D000D000D0CDB747
:100D9000DEB7ADC00E947C028091890090918A00EC
:100DA0000E94F302882F90E08C01000F111F000FAA
:100DB000111F80918700909188000E941303882F53
:100DC00090E0800F911F9A83898389819A8101978E
:100DD0008A3091050CF08BC080919700909198001B
:100DE0008130910569F410928600109285008091FF
:100DF00097009091980001969093980080939700A7
:100E000080919700909198008230910541F58981F9
:100E10009A8101978630910514F510928600109200
:100E200085008091850090918600009741F089812E
:100E30009A810197909392008093910007C08981D5
:100E40009A81019790938E0080938D0080919700F6
:100E500090919800019690939800809397008091CC
:100E60009700909198008330910569F41092860064
:100E70001092850080919700909198000196909330
:100E8000980080939700809197009091980084300B
:100E9000910569F510928600109285008091850079
:100EA00090918600009791F089819A810197833013
:100EB0009105ECF489819A81019790939600809333
:100EC0009500109298001092970011C089819A8124
:100ED0000197863091055CF489819A8101979093FE
:100EE0009200809391001092980010929700809148
:100EF000970090919800009709F04CCF26960FB676
:100F0000F894DEBF0FBECDBFDF91CF911F910F913F
:100F100008950F931F93CF93DF93CDB7DEB7289734
:100F20000FB6F894DEBF0FBECDBF98878F8385E3E1
:100F300090E0FC01108284E390E02FE0FC0120832C
:100F400085E390E020EFFC0120831A82198205C01E
:100F500089819A8101969A83898389819A818A30CD
:100F60009105B4F383E390E0FC018081882F90E049
:100F700090938A00809389008091890090918A00E3
:100F80008095909595958795959587959595879555
:100F9000959587958F70992790938A008093890003
:100FA00085E390E0FC01108284E390E020EFFC01F7
:100FB000208385E390E02FE0FC0120831C821B82CC
:100FC00005C08B819C8101969C838B838B819C8146
:100FD0008A309105B4F383E390E0FC018081882F8F
:100FE00090E0909388008093870080918700909193
:100FF0008800809590958F709927909388008093B2
:1010000087008091890090918A000E94F302882FC6
:1010100090E08C01000F111F000F111F80918700BD
:10102000909188000E941303882F90E0800F911FF9
:101030009E838D838D819E8180319105A9F481E00D
:1010400090E090939800809397000E94C0068D8155
:101050009E818F30910541F481E090E0909398005B
:10106000809397000E94980328960FB6F894DEBFED
:101070000FBECDBFDF91CF911F910F910895CF93F8
:10108000DF93CDB7DEB70E94EA0A20E030E043EB01
:1010900051E063E070E081E090E00E94D60E20E035
:1010A00030E040ED51E064E670E082E090E00E94C4
:1010B000D60E20E030E049E857E06AE070E083E0D7
:1010C00090E00E94D60E20E030E047E456E065E074
:1010D00070E084E090E00E94D60E0E947500789443
:1010E0000E944F0D80E090E0DF91CF910895CF9363
:1010F000DF931F92CDB7DEB789838981882F90E077
:1011000081709927009751F08BE390E02BE330E05A
:10111000F90120812061FC01208309C08BE390E06C
:101120002BE330E0F90120812F7EFC0120838981AF
:10113000882F90E082709927009751F08BE390E020
:101140002BE330E0F90120812062FC01208309C0FB
:101150008BE390E02BE330E0F90120812F7DFC014F
:1011600020838981882F90E084709927009751F01F
:101170008BE390E02BE330E0F90120812064FC0157
:10118000208309C08BE390E02BE330E0F90120815C
:101190002F7BFC0120838981882F90E0887099271C
:1011A000009751F08BE390E02BE330E0F9012081D0
:1011B0002068FC01208309C08BE390E02BE330E042
:1011C000F90120812F77FC0120830F90DF91CF91CF
:1011D0000895CF93DF93CDB7DEB7A1970FB6F894FC
:1011E000DEBF0FBECDBF89A38BE390E02BE330E0E1
:1011F000F90120812860FC01208389A182958F70EC
:101200000E9477088BE390E02BE330E0F901208126
:10121000277FFC0120838BE390E02BE330E0F90192
:1012200020812860FC01208389A10E9477088BE33C
:1012300090E02BE330E0F9012081277FFC0120833F
:1012400080E090E0A8E4B2E489839A83AB83BC8316
:101250002BEA3AEA4AEA50E469817A818B819C81DF
:101260000E945F10DC01CB018D839E83AF83B88722
:1012700020E030E040E850E469817A818B819C81F4
:101280000E945F10DC01CB0189879A87AB87BC87FE
:1012900020E030E040E85FE36D817E818F819885BA
:1012A0000E944E0F88231CF481E08D87B2C020E09D
:1012B0003FEF4FE757E469857A858B859C850E94CF
:1012C0005B1018160CF07BC020E030E04AE754E4D5
:1012D00069817A818B819C810E94520FDC01CB0154
:1012E0008E879F87A88BB98B20E030E04AE755E4D2
:1012F0006E857F85888999890E945F10DC01CB010A
:101300008A8B9B8BAC8BBD8B20E030E040E85FE3A9
:101310006A897B898C899D890E944E0F88232CF4D1
:1013200081E090E09F8B8E8B3FC020E03FEF4FE746
:1013300057E46A897B898C899D890E945B10181605
:101340004CF520E030E040E251E46E857F858889ED
:1013500099890E945F10DC01CB01BC01CD010E9484
:10136000BA0FDC01CB019F8B8E8B0FC080E991E01F
:10137000998F888F888D998D0197F1F7998F888F34
:101380008E899F8901979F8B8E8B8E899F8900976D
:1013900069F73FC06A897B898C899D890E94BA0F51
:1013A000DC01CB019F8B8E8B8E899F899B8F8A8FCF
:1013B0008A8D9B8D0197F1F79B8F8A8F2AC020E041
:1013C00030E04FE753E46D817E818F8198850E94E4
:1013D0005B101816ACF469857A858B859C850E9414
:1013E000BA0FDC01CB019D8F8C8F8C8D9D8D9F8FD3
:1013F0008E8F8E8D9F8D0197F1F79F8F8E8F0FC0EF
:101400006D817E818F8198850E94BA0FDC01CB01AE
:101410008D878D8588A388A18A95F1F788A3A196E9
:101420000FB6F894DEBF0FBECDBFDF91CF91089508
:10143000CF93DF931F92CDB7DEB789838BE390E024
:101440002BE330E0F90120812B7FFC01208389818F
:101450000E94E9080F90DF91CF910895CF93DF9319
:101460001F92CDB7DEB789838BE390E02BE330E0AA
:10147000F90120812460FC01208389810E94E90810
:101480000F90DF91CF910895CF93DF9300D0CDB728
:10149000DEB79A8389830BC089819A819C012F5F73
:1014A0003F4F3A832983FC0180810E942E0A898163
:1014B0009A81FC018081882379F70F900F90DF914A
:1014C000CF910895CF93DF93CDB7DEB72E970FB6A8
:1014D000F894DEBF0FBECDBF81E00E94180A80E005
:1014E00090E0A0E2B1E489839A83AB83BC8320E0DF
:1014F00030E04AE755E469817A818B819C810E94C2
:101500005F10DC01CB018D839E83AF83B88720E021
:1015100030E040E85FE36D817E818F8198850E9495
:101520004E0F88232CF481E090E09A8789873FC092
:1015300020E03FEF4FE757E46D817E818F819885F2
:101540000E945B1018164CF520E030E040E251E4B8
:1015500069817A818B819C810E945F10DC01CB01C3
:10156000BC01CD010E94BA0FDC01CB019A878987AB
:101570000FC080E991E09C878B878B859C850197C4
:10158000F1F79C878B8789859A8501979A87898748
:1015900089859A85009769F714C06D817E818F8156
:1015A00098850E94BA0FDC01CB019A8789878985CB
:1015B0009A859E878D878D859E850197F1F79E87F9
:1015C0008D872E960FB6F894DEBF0FBECDBFDF918C
:1015D000CF910895CF93DF93CDB7DEB7E9970FB6DC
:1015E000F894DEBF0FBECDBF8AE390E02AE330E07F
:1015F000F90120812061FC0120838AE390E02AE345
:1016000030E0F90120812062FC0120838AE390E030
:101610002AE330E0F90120812064FC0120838AE381
:1016200090E02AE330E0F90120812068FC0120836A
:101630008AE390E02AE330E0F90120812860FC0190
:1016400020838AE390E02AE330E0F90120812460DE
:10165000FC01208380E090E0A0E7B1E48A839B83D3
:10166000AC83BD8320E030E04AE755E46A817B81AA
:101670008C819D810E945F10DC01CB018E839F8352
:10168000A887B98720E030E040E85FE36E817F8182
:10169000888599850E944E0F88232CF481E090E084
:1016A0009B878A873FC020E03FEF4FE757E46E817A
:1016B0007F81888599850E945B1018164CF520E083
:1016C00030E040E251E46A817B818C819D810E94FF
:1016D0005F10DC01CB01BC01CD010E94BA0FDC011F
:1016E000CB019B878A870FC080E991E09D878C871B
:1016F0008C859D850197F1F79D878C878A859B85D1
:1017000001979B878A878A859B85009769F714C014
:101710006E817F81888599850E94BA0FDC01CB019B
:101720009B878A878A859B859F878E878E859F85E5
:101730000197F1F79F878E878BE390E02BE330E0F2
:10174000F90120812B7FFC0120838BE390E02BE3C8
:1017500030E0F9012081277FFC01208319828AC0B3
:101760008BE390E02BE330E0F90120812860FC015D
:10177000208383E00E9477088BE390E02BE330E046
:10178000F9012081277FFC01208380E090E0A0EA1E
:10179000B0E4888B998BAA8BBB8B20E030E04AE7C2
:1017A00055E4688979898A899B890E945F10DC01E8
:1017B000CB018C8B9D8BAE8BBF8B20E030E040E863
:1017C0005FE36C897D898E899F890E944E0F8823F3
:1017D0002CF481E090E0998F888F3FC020E03FEFAC
:1017E0004FE757E46C897D898E899F890E945B1041
:1017F00018164CF520E030E040E251E46889798920
:101800008A899B890E945F10DC01CB01BC01CD015C
:101810000E94BA0FDC01CB01998F888F0FC080E93D
:1018200091E09B8F8A8F8A8D9B8D0197F1F79B8F1B
:101830008A8F888D998D0197998F888F888D998D42
:10184000009769F714C06C897D898E899F890E94F1
:10185000BA0FDC01CB01998F888F888D998D9D8F70
:101860008C8F8C8D9D8D0197F1F79D8F8C8F898149
:101870008F5F89838981833008F472CF8BE390E096
:101880002BE330E0F90120812860FC01208382E015
:101890000E9477088BE390E02BE330E0F901208190
:1018A000277FFC01208380E090E0A0E8BFE38E8FDB
:1018B0009F8FA8A3B9A320E030E04AE755E46E8DDE
:1018C0007F8D88A199A10E945F10DC01CB018AA3C2
:1018D0009BA3ACA3BDA320E030E040E85FE36AA196
:1018E0007BA18CA19DA10E944E0F88232CF481E046
:1018F00090E09FA38EA33FC020E03FEF4FE757E467
:101900006AA17BA18CA19DA10E945B1018164CF5C9
:1019100020E030E040E251E46E8D7F8D88A199A1F6
:101920000E945F10DC01CB01BC01CD010E94BA0F07
:10193000DC01CB019FA38EA30FC080E991E099A7A2
:1019400088A788A599A50197F1F799A788A78EA1DF
:101950009FA101979FA38EA38EA19FA1009769F7D6
:1019600014C06AA17BA18CA19DA10E94BA0FDC01C9
:10197000CB019FA38EA38EA19FA19BA78AA78AA517
:101980009BA50197F1F79BA78AA788E20E94180AF6
:1019900088E00E94180A81E00E94180A80E090E026
:1019A000A0E0B0E48CA79DA7AEA7BFA720E030E0E1
:1019B0004AE755E46CA57DA58EA59FA50E945F1002
:1019C000DC01CB0188AB99ABAAABBBAB20E030E02C
:1019D00040E85FE368A979A98AA99BA90E944E0FF4
:1019E00088232CF481E090E09DAB8CAB3FC020E0DD
:1019F0003FEF4FE757E468A979A98AA99BA90E94FC
:101A00005B1018164CF520E030E040E251E46CA584
:101A10007DA58EA59FA50E945F10DC01CB01BC01B6
:101A2000CD010E94BA0FDC01CB019DAB8CAB0FC086
:101A300080E991E09FAB8EAB8EA99FA90197F1F74A
:101A40009FAB8EAB8CA99DA901979DAB8CAB8CA94C
:101A50009DA9009769F714C068A979A98AA99BA9CB
:101A60000E94BA0FDC01CB019DAB8CAB8CA99DA968
:101A700099AF88AF88AD99AD0197F1F799AF88AF6D
:101A800086E00E94180A8CE00E94180AE9960FB6B8
:101A9000F894DEBF0FBECDBFDF91CF910895CF93F5
:101AA000DF9300D000D0CDB7DEB71A8219826CC0A8
:101AB00089819A81880F991F9C01220F331F220F61
:101AC000331F820F931F87569F4FFC0180819181A6
:101AD000009709F054C089819A81880F991F9C0151
:101AE000220F331F220F331F820F931F81569F4FE8
:101AF000FC011182108289819A81880F991F9C01B3
:101B0000220F331F220F331F820F931F85569F4FC3
:101B10002FEF3FEFFC013183208389819A81880F69
:101B2000991F9C01220F331F220F331F820F931F17
:101B300083569F4FFC011182108289819A81880F00
:101B4000991F9C01220F331F220F331F820F931FF7
:101B500087569F4FFC011182108289819A81880FDC
:101B6000991F9C01220F331F220F331F820F931FD7
:101B70008F559F4F2FEF3FEFFC01318320838981E9
:101B80009A8101969A83898389819A818830910507
:101B90000CF48ECF1C821B828B819C81880F991F35
:101BA0009C01220F331F220F331F820F931F835676
:101BB0009F4FFC0180819181181619060CF056C0C8
:101BC00080916C0090916D00009729F0F89410922C
:101BD0006D0010926C008B819C81880F991F9C0175
:101BE000220F331F220F331F820F931F83569F4FE5
:101BF000FC01808191819C01215031098B819C8164
:101C0000880F991FAC01440F551F440F551F840FB7
:101C1000951F83569F4FFC01318320838B819C81CC
:101C2000880F991F9C01220F331F220F331F820F31
:101C3000931F87569F4FFC01208131818B819C81AE
:101C4000880F991FAC01440F551F440F551F840F77
:101C5000951F81569F4FFC0180819181F901099563
:101C60008B819C8101969C838B831CC08B819C8182
:101C700001968830910534F48B819C8101969C8378
:101C80008B8310C080916C0090916D00009739F4A7
:101C900081E090E090936D0080936C0078941C82BA
:101CA0001B827ACF79CFCF93DF9300D0CDB7DEB749
:101CB0001A82198270C089819A81880F991F9C01AC
:101CC000220F331F220F331F820F931F8F559F4FF9
:101CD000FC01808191810097B1F589819A81880FFB
:101CE000991F9C01220F331F220F331F820F931F56
:101CF00083569F4F21E030E0FC01318320838981AE
:101D00009A81880F991F9C01220F331F220F331FC6
:101D1000820F931F85569F4FFC01808191819C010A
:101D20002150310989819A81880F991FAC01440F94
:101D3000551F440F551F840F951F8F559F4FFC0152
:101D40003183208323C089819A81880F991F9C0148
:101D5000220F331F220F331F820F931F8F559F4F68
:101D6000FC01808191819C012150310989819A81F6
:101D7000880F991FAC01440F551F440F551F840F46
:101D8000951F8F559F4FFC013183208389819A8154
:101D900001969A83898389819A81883091050CF410
:101DA0008ACF0F900F90DF91CF910895CF93DF935B
:101DB000CDB7DEB728970FB6F894DEBF0FBECDBF04
:101DC0009A8389837C836B835E834D8338872F83DB
:101DD00089819A810197880F991F9C01220F331FD7
:101DE000220F331F820F931F85569F4F2B813C81FB
:101DF000FC013183208389819A810197880F991F83
:101E00009C01220F331F220F331F820F931F87560F
:101E10009F4F2D813E81FC013183208389819A81EE
:101E20000197880F991F9C01220F331F220F331F28
:101E3000820F931F81569F4F2F813885FC0131837C
:101E4000208389819A810197880F991F9C01220F15
:101E5000331F220F331F820F931F8F559F4F2B81EC
:101E60003C81FC013183208389819A810197880F0D
:101E7000991F9C01220F331F220F331F820F931FC4
:101E800083569F4FFC011182108228960FB6F8945A
:101E9000DEBF0FBECDBFDF91CF91089597D008F47C
:101EA00081E008950CD0CDC0C5D040F0BCD030F05A
:101EB00021F45F3F19F0AEC05111F7C0B1C0D2D0CC
:101EC00098F39923C9F35523B1F3951B550BBB2701
:101ED000AA2762177307840738F09F5F5F4F220FAE
:101EE000331F441FAA1FA9F333D00E2E3AF0E0E8A7
:101EF00030D091505040E695001CCAF729D0FE2FF3
:101F000027D0660F771F881FBB1F26173707480784
:101F1000AB07B0E809F0BB0B802DBF01FF2793583A
:101F20005F4F2AF09E3F510568F074C0BEC05F3F0E
:101F3000ECF3983EDCF3869577956795B795F79522
:101F40009F5FC9F7880F911D9695879597F908951A
:101F5000E1E0660F771F881FBB1F621773078407B6
:101F6000BA0720F0621B730B840BBA0BEE1F88F7C5
:101F7000E09508957FD088F09F5790F0B92F99276A
:101F8000B751A0F0D1F0660F771F881F991F1AF084
:101F9000BA95C9F712C0B13081F086D0B1E008958A
:101FA00083C0672F782F8827B85F39F0B93FCCF30B
:101FB000869577956795B395D9F73EF4909580957A
:101FC000709561957F4F8F4F9F4F0895990F00082F
:101FD000550FAA0BE0E8FEEF16161706E807F907FB
:101FE000C0F012161306E407F50798F0621B730B96
:101FF000840B950B39F40A2661F0232B242B252B17
:1020000021F408950A2609F4A140A6958FEF811DB9
:10201000811D089597F99F6780E870E060E008955A
:102020009FEF80EC089500240A94161617061806F0
:102030000906089500240A941216130614060506CC
:102040000895092E0394000C11F4882352F0BB0F5D
:1020500040F4BF2B11F460FF04C06F5F7F4F8F4FC0
:102060009F4F089557FD9058440F551F59F05F3FFB
:1020700071F04795880F97FB991F61F09F3F79F0AA
:1020800087950895121613061406551FF2CF46952C
:10209000F1DF08C0161617061806991FF1CF8695AE
:1020A0007105610508940895E894BB276627772792
:1020B000CB0197F908958ADF08F48FEF08950BD0CC
:1020C000C0CFB1DF28F0B6DF18F0952309F0A2CF1A
:1020D000A7CF1124EACFC6DFA0F3959FD1F3950FC8
:1020E00050E0551F629FF001729FBB27F00DB11D9C
:1020F000639FAA27F00DB11DAA1F649F6627B00D2C
:10210000A11D661F829F2227B00DA11D621F739F14
:10211000B00DA11D621F839FA00D611D221F749F22
:102120003327A00D611D231F849F600D211D822F69
:10213000762F6A2F11249F5750408AF0E1F08823B0
:102140004AF0EE0FFF1FBB1F661F771F881F9150BD
:102150005040A9F79E3F510570F05CCFA6CF5F3F7E
:10216000ECF3983EDCF3869577956795B795F795F0
:10217000E7959F5FC1F7FE2B880F911D9695879578
:0821800097F90895F894FFCFD0
:102188008000C0F9A4B0999282F88090010053654C
:102198007420416C61726D003A00424950204249F6
:0221A8005000E5
:00000001FF
